{
  "_format": "hh-sol-artifact-1",
  "contractName": "TribeBlockGoodDollarRewardsVault",
  "sourceName": "contracts/TribeBlockGoodDollarRewardsVault.sol",
  "abi": [
    {
      "inputs": [
        {
          "internalType": "address",
          "name": "goodDollarToken",
          "type": "address"
        },
        {
          "internalType": "address",
          "name": "initialOwner",
          "type": "address"
        }
      ],
      "stateMutability": "nonpayable",
      "type": "constructor"
    },
    {
      "anonymous": false,
      "inputs": [
        {
          "indexed": true,
          "internalType": "address",
          "name": "to",
          "type": "address"
        },
        {
          "indexed": false,
          "internalType": "uint256",
          "name": "amount",
          "type": "uint256"
        }
      ],
      "name": "GoodDollarWithdrawn",
      "type": "event"
    },
    {
      "anonymous": false,
      "inputs": [
        {
          "indexed": true,
          "internalType": "address",
          "name": "oldOwner",
          "type": "address"
        },
        {
          "indexed": true,
          "internalType": "address",
          "name": "newOwner",
          "type": "address"
        }
      ],
      "name": "OwnershipTransferred",
      "type": "event"
    },
    {
      "anonymous": false,
      "inputs": [
        {
          "indexed": true,
          "internalType": "bytes32",
          "name": "rewardHash",
          "type": "bytes32"
        },
        {
          "indexed": false,
          "internalType": "string",
          "name": "rewardId",
          "type": "string"
        },
        {
          "indexed": true,
          "internalType": "address",
          "name": "recipient",
          "type": "address"
        },
        {
          "indexed": false,
          "internalType": "uint256",
          "name": "amount",
          "type": "uint256"
        }
      ],
      "name": "RewardCanceled",
      "type": "event"
    },
    {
      "anonymous": false,
      "inputs": [
        {
          "indexed": true,
          "internalType": "bytes32",
          "name": "rewardHash",
          "type": "bytes32"
        },
        {
          "indexed": false,
          "internalType": "string",
          "name": "rewardId",
          "type": "string"
        },
        {
          "indexed": true,
          "internalType": "address",
          "name": "recipient",
          "type": "address"
        },
        {
          "indexed": false,
          "internalType": "uint256",
          "name": "amount",
          "type": "uint256"
        }
      ],
      "name": "RewardClaimed",
      "type": "event"
    },
    {
      "anonymous": false,
      "inputs": [
        {
          "indexed": true,
          "internalType": "bytes32",
          "name": "rewardHash",
          "type": "bytes32"
        },
        {
          "indexed": false,
          "internalType": "string",
          "name": "rewardId",
          "type": "string"
        },
        {
          "indexed": true,
          "internalType": "address",
          "name": "recipient",
          "type": "address"
        },
        {
          "indexed": false,
          "internalType": "uint256",
          "name": "amount",
          "type": "uint256"
        }
      ],
      "name": "RewardPrepared",
      "type": "event"
    },
    {
      "inputs": [],
      "name": "availableBalance",
      "outputs": [
        {
          "internalType": "uint256",
          "name": "",
          "type": "uint256"
        }
      ],
      "stateMutability": "view",
      "type": "function"
    },
    {
      "inputs": [
        {
          "internalType": "string",
          "name": "rewardId",
          "type": "string"
        }
      ],
      "name": "cancelReward",
      "outputs": [],
      "stateMutability": "nonpayable",
      "type": "function"
    },
    {
      "inputs": [
        {
          "internalType": "string",
          "name": "rewardId",
          "type": "string"
        }
      ],
      "name": "claimReward",
      "outputs": [],
      "stateMutability": "nonpayable",
      "type": "function"
    },
    {
      "inputs": [],
      "name": "goodDollar",
      "outputs": [
        {
          "internalType": "contract IGoodDollarToken",
          "name": "",
          "type": "address"
        }
      ],
      "stateMutability": "view",
      "type": "function"
    },
    {
      "inputs": [],
      "name": "owner",
      "outputs": [
        {
          "internalType": "address",
          "name": "",
          "type": "address"
        }
      ],
      "stateMutability": "view",
      "type": "function"
    },
    {
      "inputs": [
        {
          "internalType": "string",
          "name": "rewardId",
          "type": "string"
        }
      ],
      "name": "rewardKey",
      "outputs": [
        {
          "internalType": "bytes32",
          "name": "",
          "type": "bytes32"
        }
      ],
      "stateMutability": "pure",
      "type": "function"
    },
    {
      "inputs": [
        {
          "internalType": "bytes32",
          "name": "",
          "type": "bytes32"
        }
      ],
      "name": "rewards",
      "outputs": [
        {
          "internalType": "address",
          "name": "recipient",
          "type": "address"
        },
        {
          "internalType": "uint256",
          "name": "amount",
          "type": "uint256"
        },
        {
          "internalType": "bool",
          "name": "claimed",
          "type": "bool"
        },
        {
          "internalType": "bool",
          "name": "canceled",
          "type": "bool"
        }
      ],
      "stateMutability": "view",
      "type": "function"
    },
    {
      "inputs": [
        {
          "internalType": "string",
          "name": "rewardId",
          "type": "string"
        },
        {
          "internalType": "address",
          "name": "recipient",
          "type": "address"
        },
        {
          "internalType": "uint256",
          "name": "amount",
          "type": "uint256"
        }
      ],
      "name": "setReward",
      "outputs": [],
      "stateMutability": "nonpayable",
      "type": "function"
    },
    {
      "inputs": [
        {
          "internalType": "string[]",
          "name": "rewardIds",
          "type": "string[]"
        },
        {
          "internalType": "address[]",
          "name": "recipients",
          "type": "address[]"
        },
        {
          "internalType": "uint256[]",
          "name": "amounts",
          "type": "uint256[]"
        }
      ],
      "name": "setRewards",
      "outputs": [],
      "stateMutability": "nonpayable",
      "type": "function"
    },
    {
      "inputs": [],
      "name": "totalClaimable",
      "outputs": [
        {
          "internalType": "uint256",
          "name": "",
          "type": "uint256"
        }
      ],
      "stateMutability": "view",
      "type": "function"
    },
    {
      "inputs": [
        {
          "internalType": "address",
          "name": "newOwner",
          "type": "address"
        }
      ],
      "name": "transferOwnership",
      "outputs": [],
      "stateMutability": "nonpayable",
      "type": "function"
    },
    {
      "inputs": [
        {
          "internalType": "address",
          "name": "to",
          "type": "address"
        },
        {
          "internalType": "uint256",
          "name": "amount",
          "type": "uint256"
        }
      ],
      "name": "withdrawAvailable",
      "outputs": [],
      "stateMutability": "nonpayable",
      "type": "function"
    }
  ],
  "bytecode": "0x60a060405234801561001057600080fd5b5060405161150138038061150183398101604081905261002f91610103565b6001600160a01b0382166100785760405162461bcd60e51b815260206004820152600b60248201526a11d117d49154555254915160aa1b60448201526064015b60405180910390fd5b6001600160a01b0381166100bf5760405162461bcd60e51b815260206004820152600e60248201526d13d5d3915497d49154555254915160921b604482015260640161006f565b6001600160a01b03918216608052600080546001600160a01b03191691909216179055610136565b80516001600160a01b03811681146100fe57600080fd5b919050565b6000806040838503121561011657600080fd5b61011f836100e7565b915061012d602084016100e7565b90509250929050565b60805161138e6101736000396000818160e601528181610419015281816104fb015281816107d201528181610a5c0152610d0f015261138e6000f3fe608060405234801561001057600080fd5b50600436106100b45760003560e01c8063938d967a11610071578063938d967a146101625780639f3510fc146101da578063ab2f0e51146101f3578063b8e8995b146101fb578063bb8c97971461020e578063f2fde38b1461022157600080fd5b80630d8a1fa6146100b95780630ed6ac30146100ce578063119e5bf3146100e15780634838ed19146101255780637915a6821461013c5780638da5cb5b1461014f575b600080fd5b6100cc6100c7366004610f24565b610234565b005b6100cc6100dc366004610fe6565b610345565b6101087f000000000000000000000000000000000000000000000000000000000000000081565b6040516001600160a01b0390911681526020015b60405180910390f35b61012e60015481565b60405190815260200161011c565b6100cc61014a366004611052565b6105f7565b600054610108906001600160a01b031681565b6101a8610170366004611094565b60026020819052600091825260409091208054600182015491909201546001600160a01b039092169160ff8082169161010090041684565b604080516001600160a01b0390951685526020850193909352901515918301919091521515606082015260800161011c565b61012e6101e83660046110c3565b805160209091012090565b61012e6107ae565b6100cc61020936600461117c565b61084c565b6100cc61021c366004611052565b610b5f565b6100cc61022f3660046111d8565b610e17565b6000546001600160a01b031633146102675760405162461bcd60e51b815260040161025e906111fa565b60405180910390fd5b848314801561027557508281145b6102b35760405162461bcd60e51b815260206004820152600f60248201526e0988a9c8ea890be9a92a69a82a8869608b1b604482015260640161025e565b60005b8581101561033c5761032a8787838181106102d3576102d361121d565b90506020028101906102e59190611233565b8787858181106102f7576102f761121d565b905060200201602081019061030c91906111d8565b86868681811061031e5761031e61121d565b9050602002013561084c565b610335600182611290565b90506102b6565b50505050505050565b6000546001600160a01b0316331461036f5760405162461bcd60e51b815260040161025e906111fa565b6001600160a01b0382166103b35760405162461bcd60e51b815260206004820152600b60248201526a1513d7d49154555254915160aa1b604482015260640161025e565b600081116103f55760405162461bcd60e51b815260206004820152600f60248201526e105353d5539517d491545552549151608a1b604482015260640161025e565b6001546040516370a0823160e01b8152306004820152600091906001600160a01b037f000000000000000000000000000000000000000000000000000000000000000016906370a0823190602401602060405180830381865afa158015610460573d6000803e3d6000fd5b505050506040513d601f19601f8201168201806040525081019061048491906112a9565b61048e91906112c2565b9050808211156104d25760405162461bcd60e51b815260206004820152600f60248201526e105353d5539517d49154d154959151608a1b604482015260640161025e565b60405163a9059cbb60e01b81526001600160a01b038481166004830152602482018490526000917f00000000000000000000000000000000000000000000000000000000000000009091169063a9059cbb906044016020604051808303816000875af1158015610546573d6000803e3d6000fd5b505050506040513d601f19601f8201168201806040525081019061056a91906112d5565b9050806105ae5760405162461bcd60e51b815260206004820152601260248201527111d117d5d2551211149055d7d1905253115160721b604482015260640161025e565b836001600160a01b03167fdeba454c16b66674806688766f1f7a7f548fb115fa952fea8d773ddaac882f13846040516105e991815260200190565b60405180910390a250505050565b6000546001600160a01b031633146106215760405162461bcd60e51b815260040161025e906111fa565b600061066283838080601f0160208091040260200160405190810160405280939291908181526020018383808284376000920191909152506101e892505050565b60008181526002602052604090206001810154919250906106b85760405162461bcd60e51b815260206004820152601060248201526f149155d0549117d393d517d193d5539160821b604482015260640161025e565b600281015460ff16156106dd5760405162461bcd60e51b815260040161025e906112f7565b6002810154610100900460ff16156107295760405162461bcd60e51b815260206004820152600f60248201526e149155d0549117d0d05390d1531151608a1b604482015260640161025e565b60028101805461ff00191661010017905560018181015481549091906000906107539084906112c2565b9091555050805460018201546040516001600160a01b039092169184917fcdb0652062af19c5d1a5f45aa42493715a3bef7fbe7ceb3d4ac3d8331f8318df916107a091899189919061131f565b60405180910390a350505050565b6001546040516370a0823160e01b8152306004820152600091906001600160a01b037f000000000000000000000000000000000000000000000000000000000000000016906370a0823190602401602060405180830381865afa158015610819573d6000803e3d6000fd5b505050506040513d601f19601f8201168201806040525081019061083d91906112a9565b61084791906112c2565b905090565b6000546001600160a01b031633146108765760405162461bcd60e51b815260040161025e906111fa565b826108b85760405162461bcd60e51b8152602060048201526012602482015271149155d0549117d25117d49154555254915160721b604482015260640161025e565b6001600160a01b0382166109035760405162461bcd60e51b8152602060048201526012602482015271149150d2541251539517d49154555254915160721b604482015260640161025e565b600081116109455760405162461bcd60e51b815260206004820152600f60248201526e105353d5539517d491545552549151608a1b604482015260640161025e565b600061098685858080601f0160208091040260200160405190810160405280939291908181526020018383808284376000920191909152506101e892505050565b6000818152600260208190526040909120908101549192509060ff16156109bf5760405162461bcd60e51b815260040161025e906112f7565b6002810154610100900460ff161580156109dd575060008160010154115b156109fe578060010154600160008282546109f891906112c2565b90915550505b80546001600160a01b0319166001600160a01b038516178155600180820184905560028201805461ffff191690558054849190600090610a3f908490611290565b90915550506001546040516370a0823160e01b81523060048201527f00000000000000000000000000000000000000000000000000000000000000006001600160a01b0316906370a0823190602401602060405180830381865afa158015610aab573d6000803e3d6000fd5b505050506040513d601f19601f82011682018060405250810190610acf91906112a9565b1015610b115760405162461bcd60e51b8152602060048201526011602482015270159055531517d553911154919553911151607a1b604482015260640161025e565b836001600160a01b0316827fdd143bcf1fce754c458b7324b6cd3913b9cc6eea33f22286a99424e0c0538057888887604051610b4f9392919061131f565b60405180910390a3505050505050565b6000610ba083838080601f0160208091040260200160405190810160405280939291908181526020018383808284376000920191909152506101e892505050565b6000818152600260205260409020600181015491925090610bf65760405162461bcd60e51b815260206004820152601060248201526f149155d0549117d393d517d193d5539160821b604482015260640161025e565b6002810154610100900460ff1615610c425760405162461bcd60e51b815260206004820152600f60248201526e149155d0549117d0d05390d1531151608a1b604482015260640161025e565b600281015460ff1615610c675760405162461bcd60e51b815260040161025e906112f7565b80546001600160a01b03163314610cb05760405162461bcd60e51b815260206004820152600d60248201526c1393d517d49150d25412515395609a1b604482015260640161025e565b60028101805460ff19166001908117909155818101548154909190600090610cd99084906112c2565b90915550508054600182015460405163a9059cbb60e01b81526001600160a01b03928316600482015260248101919091526000917f0000000000000000000000000000000000000000000000000000000000000000169063a9059cbb906044016020604051808303816000875af1158015610d58573d6000803e3d6000fd5b505050506040513d601f19601f82011682018060405250810190610d7c91906112d5565b905080610dc05760405162461bcd60e51b815260206004820152601260248201527111d117d514905394d1915497d1905253115160721b604482015260640161025e565b815460018301546040516001600160a01b039092169185917f33c6c9c757fda8bde4e01aa657219a35f330b537b1e27be7f16b08ceeeb2daab91610e08918a918a919061131f565b60405180910390a35050505050565b6000546001600160a01b03163314610e415760405162461bcd60e51b815260040161025e906111fa565b6001600160a01b038116610e885760405162461bcd60e51b815260206004820152600e60248201526d13d5d3915497d49154555254915160921b604482015260640161025e565b600080546001600160a01b038381166001600160a01b0319831681178455604051919092169283917f8be0079c531659141344cd1fd0a4f28419497f9722a3daafe3b4186f6b6457e09190a35050565b60008083601f840112610eea57600080fd5b50813567ffffffffffffffff811115610f0257600080fd5b6020830191508360208260051b8501011115610f1d57600080fd5b9250929050565b60008060008060008060608789031215610f3d57600080fd5b863567ffffffffffffffff811115610f5457600080fd5b610f6089828a01610ed8565b909750955050602087013567ffffffffffffffff811115610f8057600080fd5b610f8c89828a01610ed8565b909550935050604087013567ffffffffffffffff811115610fac57600080fd5b610fb889828a01610ed8565b979a9699509497509295939492505050565b80356001600160a01b0381168114610fe157600080fd5b919050565b60008060408385031215610ff957600080fd5b61100283610fca565b946020939093013593505050565b60008083601f84011261102257600080fd5b50813567ffffffffffffffff81111561103a57600080fd5b602083019150836020828501011115610f1d57600080fd5b6000806020838503121561106557600080fd5b823567ffffffffffffffff81111561107c57600080fd5b61108885828601611010565b90969095509350505050565b6000602082840312156110a657600080fd5b5035919050565b634e487b7160e01b600052604160045260246000fd5b6000602082840312156110d557600080fd5b813567ffffffffffffffff8111156110ec57600080fd5b8201601f810184136110fd57600080fd5b803567ffffffffffffffff811115611117576111176110ad565b604051601f8201601f19908116603f0116810167ffffffffffffffff81118282101715611146576111466110ad565b60405281815282820160200186101561115e57600080fd5b81602084016020830137600091810160200191909152949350505050565b6000806000806060858703121561119257600080fd5b843567ffffffffffffffff8111156111a957600080fd5b6111b587828801611010565b90955093506111c8905060208601610fca565b9396929550929360400135925050565b6000602082840312156111ea57600080fd5b6111f382610fca565b9392505050565b6020808252600990820152682727aa2fa7aba722a960b91b604082015260600190565b634e487b7160e01b600052603260045260246000fd5b6000808335601e1984360301811261124a57600080fd5b83018035915067ffffffffffffffff82111561126557600080fd5b602001915036819003821315610f1d57600080fd5b634e487b7160e01b600052601160045260246000fd5b808201808211156112a3576112a361127a565b92915050565b6000602082840312156112bb57600080fd5b5051919050565b818103818111156112a3576112a361127a565b6000602082840312156112e757600080fd5b815180151581146111f357600080fd5b6020808252600e908201526d149155d0549117d0d3105253515160921b604082015260600190565b604081528260408201528284606083013760006060848301015260006060601f19601f860116830101905082602083015294935050505056fea26469706673582212203a3817e169137e9b671c271d9a76b236c826e7b9b66046aac7f6eab82217387164736f6c634300081c0033",
  "linkReferences": {},
  "deployedLinkReferences": {}
}