{
  "_format": "hh-sol-artifact-1",
  "contractName": "TribeBlockUsdtPayments",
  "sourceName": "contracts/TribeBlockUsdtPayments.sol",
  "abi": [
    {
      "inputs": [
        {
          "internalType": "address",
          "name": "usdtToken",
          "type": "address"
        },
        {
          "internalType": "address",
          "name": "treasuryWallet",
          "type": "address"
        }
      ],
      "stateMutability": "nonpayable",
      "type": "constructor"
    },
    {
      "anonymous": false,
      "inputs": [
        {
          "indexed": true,
          "internalType": "address",
          "name": "oldOwner",
          "type": "address"
        },
        {
          "indexed": true,
          "internalType": "address",
          "name": "newOwner",
          "type": "address"
        }
      ],
      "name": "OwnershipTransferred",
      "type": "event"
    },
    {
      "anonymous": false,
      "inputs": [
        {
          "indexed": true,
          "internalType": "address",
          "name": "payer",
          "type": "address"
        },
        {
          "indexed": false,
          "internalType": "uint256",
          "name": "amount",
          "type": "uint256"
        },
        {
          "indexed": false,
          "internalType": "string",
          "name": "paymentReference",
          "type": "string"
        }
      ],
      "name": "SubscriptionPaid",
      "type": "event"
    },
    {
      "anonymous": false,
      "inputs": [
        {
          "indexed": true,
          "internalType": "address",
          "name": "oldTreasury",
          "type": "address"
        },
        {
          "indexed": true,
          "internalType": "address",
          "name": "newTreasury",
          "type": "address"
        }
      ],
      "name": "TreasuryChanged",
      "type": "event"
    },
    {
      "anonymous": false,
      "inputs": [
        {
          "indexed": true,
          "internalType": "address",
          "name": "to",
          "type": "address"
        },
        {
          "indexed": false,
          "internalType": "uint256",
          "name": "amount",
          "type": "uint256"
        }
      ],
      "name": "UsdtWithdrawn",
      "type": "event"
    },
    {
      "inputs": [],
      "name": "owner",
      "outputs": [
        {
          "internalType": "address",
          "name": "",
          "type": "address"
        }
      ],
      "stateMutability": "view",
      "type": "function"
    },
    {
      "inputs": [
        {
          "internalType": "uint256",
          "name": "amount",
          "type": "uint256"
        },
        {
          "internalType": "string",
          "name": "paymentReference",
          "type": "string"
        }
      ],
      "name": "paySubscription",
      "outputs": [],
      "stateMutability": "nonpayable",
      "type": "function"
    },
    {
      "inputs": [
        {
          "internalType": "bytes32",
          "name": "",
          "type": "bytes32"
        }
      ],
      "name": "payments",
      "outputs": [
        {
          "internalType": "address",
          "name": "payer",
          "type": "address"
        },
        {
          "internalType": "uint256",
          "name": "amount",
          "type": "uint256"
        },
        {
          "internalType": "uint256",
          "name": "paidAt",
          "type": "uint256"
        },
        {
          "internalType": "string",
          "name": "paymentReference",
          "type": "string"
        }
      ],
      "stateMutability": "view",
      "type": "function"
    },
    {
      "inputs": [
        {
          "internalType": "address",
          "name": "newTreasury",
          "type": "address"
        }
      ],
      "name": "setTreasury",
      "outputs": [],
      "stateMutability": "nonpayable",
      "type": "function"
    },
    {
      "inputs": [],
      "name": "totalPaid",
      "outputs": [
        {
          "internalType": "uint256",
          "name": "",
          "type": "uint256"
        }
      ],
      "stateMutability": "view",
      "type": "function"
    },
    {
      "inputs": [
        {
          "internalType": "address",
          "name": "newOwner",
          "type": "address"
        }
      ],
      "name": "transferOwnership",
      "outputs": [],
      "stateMutability": "nonpayable",
      "type": "function"
    },
    {
      "inputs": [],
      "name": "treasury",
      "outputs": [
        {
          "internalType": "address",
          "name": "",
          "type": "address"
        }
      ],
      "stateMutability": "view",
      "type": "function"
    },
    {
      "inputs": [],
      "name": "usdt",
      "outputs": [
        {
          "internalType": "contract IERC20",
          "name": "",
          "type": "address"
        }
      ],
      "stateMutability": "view",
      "type": "function"
    },
    {
      "inputs": [],
      "name": "withdrawAllUsdt",
      "outputs": [],
      "stateMutability": "nonpayable",
      "type": "function"
    },
    {
      "inputs": [
        {
          "internalType": "uint256",
          "name": "amount",
          "type": "uint256"
        }
      ],
      "name": "withdrawUsdt",
      "outputs": [],
      "stateMutability": "nonpayable",
      "type": "function"
    }
  ],
  "bytecode": "0x60a060405234801561001057600080fd5b50604051610e61380380610e6183398101604081905261002f91610115565b6001600160a01b03821661007a5760405162461bcd60e51b815260206004820152600d60248201526c1554d11517d491545552549151609a1b60448201526064015b60405180910390fd5b6001600160a01b0381166100c45760405162461bcd60e51b81526020600482015260116024820152701514915054d5549657d491545552549151607a1b6044820152606401610071565b6001600160a01b03918216608052600080546001600160a01b0319908116331790915560018054929093169116179055610148565b80516001600160a01b038116811461011057600080fd5b919050565b6000806040838503121561012857600080fd5b610131836100f9565b915061013f602084016100f9565b90509250929050565b608051610cea6101776000396000818160de015281816101ec015281816102c701526106060152610cea6000f3fe608060405234801561001057600080fd5b506004361061009e5760003560e01c8063d3635a0211610066578063d3635a021461013e578063e7b0f66614610151578063edbc819414610168578063f0f442601461017b578063f2fde38b1461018e57600080fd5b8063055fc2d7146100a35780630716326d146100ad5780632f48ab7d146100d957806361d027b3146101185780638da5cb5b1461012b575b600080fd5b6100ab6101a1565b005b6100c06100bb366004610959565b6103c0565b6040516100d09493929190610972565b60405180910390f35b6101007f000000000000000000000000000000000000000000000000000000000000000081565b6040516001600160a01b0390911681526020016100d0565b600154610100906001600160a01b031681565b600054610100906001600160a01b031681565b6100ab61014c366004610959565b61047e565b61015a60025481565b6040519081526020016100d0565b6100ab6101763660046109dd565b6104ea565b6100ab610189366004610a5b565b6107d2565b6100ab61019c366004610a5b565b610898565b6000546001600160a01b031633146101d45760405162461bcd60e51b81526004016101cb90610a8b565b60405180910390fd5b6040516370a0823160e01b81523060048201526000907f00000000000000000000000000000000000000000000000000000000000000006001600160a01b0316906370a0823190602401602060405180830381865afa15801561023b573d6000803e3d6000fd5b505050506040513d601f19601f8201168201806040525081019061025f9190610aae565b90506000811161029b5760405162461bcd60e51b81526020600482015260076024820152661393d7d554d11560ca1b60448201526064016101cb565b60015460405163a9059cbb60e01b81526001600160a01b039182166004820152602481018390526000917f0000000000000000000000000000000000000000000000000000000000000000169063a9059cbb906044016020604051808303816000875af1158015610310573d6000803e3d6000fd5b505050506040513d601f19601f820116820180604052508101906103349190610ac7565b90508061037a5760405162461bcd60e51b81526020600482015260146024820152731554d11517d5d2551211149055d7d1905253115160621b60448201526064016101cb565b6001546040518381526001600160a01b03909116907fbdd3f02d2a57fb53c1156f98470b61cb60712d485c27c36a49b1263dabcde2019060200160405180910390a25050565b600360208190526000918252604090912080546001820154600283015493830180546001600160a01b0390931694919391926103fb90610ae9565b80601f016020809104026020016040519081016040528092919081815260200182805461042790610ae9565b80156104745780601f1061044957610100808354040283529160200191610474565b820191906000526020600020905b81548152906001019060200180831161045757829003601f168201915b5050505050905084565b6000546001600160a01b031633146104a85760405162461bcd60e51b81526004016101cb90610a8b565b6000811161029b5760405162461bcd60e51b815260206004820152600f60248201526e105353d5539517d491545552549151608a1b60448201526064016101cb565b6000831161052c5760405162461bcd60e51b815260206004820152600f60248201526e105353d5539517d491545552549151608a1b60448201526064016101cb565b8061056e5760405162461bcd60e51b81526020600482015260126024820152711491519154915390d157d49154555254915160721b60448201526064016101cb565b60008282604051610580929190610b23565b6040518091039020905060036000828152602001908152602001600020600201546000146105e15760405162461bcd60e51b815260206004820152600e60248201526d1491519154915390d157d410525160921b60448201526064016101cb565b6040516323b872dd60e01b8152336004820152306024820152604481018590526000907f00000000000000000000000000000000000000000000000000000000000000006001600160a01b0316906323b872dd906064016020604051808303816000875af1158015610657573d6000803e3d6000fd5b505050506040513d601f19601f8201168201806040525081019061067b9190610ac7565b9050806106c15760405162461bcd60e51b81526020600482015260146024820152731554d11517d514905394d1915497d1905253115160621b60448201526064016101cb565b6040518060800160405280336001600160a01b0316815260200186815260200142815260200185858080601f016020809104026020016040519081016040528093929190818152602001838380828437600092018290525093909452505084815260036020818152604092839020855181546001600160a01b0319166001600160a01b0390911617815590850151600182015591840151600283015560608401519192508201906107729082610b98565b5090505084600260008282546107889190610c57565b909155505060405133907fbb7b06bd7e1ff28ec66968c314a75b5030f5586cd1c596703c035df4f4c84bca906107c390889088908890610c7e565b60405180910390a25050505050565b6000546001600160a01b031633146107fc5760405162461bcd60e51b81526004016101cb90610a8b565b6001600160a01b0381166108465760405162461bcd60e51b81526020600482015260116024820152701514915054d5549657d491545552549151607a1b60448201526064016101cb565b600180546001600160a01b038381166001600160a01b0319831681179093556040519116919082907f8c3aa5f43a388513435861bf27dfad7829cd248696fed367c62d441f6295449690600090a35050565b6000546001600160a01b031633146108c25760405162461bcd60e51b81526004016101cb90610a8b565b6001600160a01b0381166109095760405162461bcd60e51b815260206004820152600e60248201526d13d5d3915497d49154555254915160921b60448201526064016101cb565b600080546001600160a01b038381166001600160a01b0319831681178455604051919092169283917f8be0079c531659141344cd1fd0a4f28419497f9722a3daafe3b4186f6b6457e09190a35050565b60006020828403121561096b57600080fd5b5035919050565b60018060a01b0385168152836020820152826040820152608060608201526000825180608084015260005b818110156109ba57602081860181015160a086840101520161099d565b50600060a0828501015260a0601f19601f83011684010191505095945050505050565b6000806000604084860312156109f257600080fd5b83359250602084013567ffffffffffffffff811115610a1057600080fd5b8401601f81018613610a2157600080fd5b803567ffffffffffffffff811115610a3857600080fd5b866020828401011115610a4a57600080fd5b939660209190910195509293505050565b600060208284031215610a6d57600080fd5b81356001600160a01b0381168114610a8457600080fd5b9392505050565b6020808252600990820152682727aa2fa7aba722a960b91b604082015260600190565b600060208284031215610ac057600080fd5b5051919050565b600060208284031215610ad957600080fd5b81518015158114610a8457600080fd5b600181811c90821680610afd57607f821691505b602082108103610b1d57634e487b7160e01b600052602260045260246000fd5b50919050565b8183823760009101908152919050565b634e487b7160e01b600052604160045260246000fd5b601f821115610b9357806000526020600020601f840160051c81016020851015610b705750805b601f840160051c820191505b81811015610b905760008155600101610b7c565b50505b505050565b815167ffffffffffffffff811115610bb257610bb2610b33565b610bc681610bc08454610ae9565b84610b49565b6020601f821160018114610bfa5760008315610be25750848201515b600019600385901b1c1916600184901b178455610b90565b600084815260208120601f198516915b82811015610c2a5787850151825560209485019460019092019101610c0a565b5084821015610c485786840151600019600387901b60f8161c191681555b50505050600190811b01905550565b80820180821115610c7857634e487b7160e01b600052601160045260246000fd5b92915050565b83815260406020820152816040820152818360608301376000818301606090810191909152601f909201601f191601019291505056fea2646970667358221220c0e96980c4646713a81bece7442f9901400334c4ddebc6ce155814227a1ab98f64736f6c634300081c0033",
  "linkReferences": {},
  "deployedLinkReferences": {}
}