{
  "_format": "hh-sol-artifact-1",
  "contractName": "TribeBlockCourseCertificates",
  "sourceName": "contracts/TribeBlockCourseCertificates.sol",
  "abi": [
    {
      "inputs": [
        {
          "internalType": "address",
          "name": "initialOwner",
          "type": "address"
        }
      ],
      "stateMutability": "nonpayable",
      "type": "constructor"
    },
    {
      "anonymous": false,
      "inputs": [
        {
          "indexed": true,
          "internalType": "address",
          "name": "owner",
          "type": "address"
        },
        {
          "indexed": true,
          "internalType": "address",
          "name": "approved",
          "type": "address"
        },
        {
          "indexed": true,
          "internalType": "uint256",
          "name": "tokenId",
          "type": "uint256"
        }
      ],
      "name": "Approval",
      "type": "event"
    },
    {
      "anonymous": false,
      "inputs": [
        {
          "indexed": true,
          "internalType": "address",
          "name": "owner",
          "type": "address"
        },
        {
          "indexed": true,
          "internalType": "address",
          "name": "operator",
          "type": "address"
        },
        {
          "indexed": false,
          "internalType": "bool",
          "name": "approved",
          "type": "bool"
        }
      ],
      "name": "ApprovalForAll",
      "type": "event"
    },
    {
      "anonymous": false,
      "inputs": [
        {
          "indexed": true,
          "internalType": "address",
          "name": "student",
          "type": "address"
        },
        {
          "indexed": true,
          "internalType": "uint256",
          "name": "tokenId",
          "type": "uint256"
        },
        {
          "indexed": false,
          "internalType": "string",
          "name": "certificateNumber",
          "type": "string"
        },
        {
          "indexed": false,
          "internalType": "string",
          "name": "metadataUri",
          "type": "string"
        }
      ],
      "name": "CertificateMinted",
      "type": "event"
    },
    {
      "anonymous": false,
      "inputs": [
        {
          "indexed": true,
          "internalType": "uint256",
          "name": "tokenId",
          "type": "uint256"
        },
        {
          "indexed": false,
          "internalType": "string",
          "name": "certificateNumber",
          "type": "string"
        }
      ],
      "name": "CertificateRevoked",
      "type": "event"
    },
    {
      "anonymous": false,
      "inputs": [
        {
          "indexed": true,
          "internalType": "address",
          "name": "minter",
          "type": "address"
        },
        {
          "indexed": false,
          "internalType": "bool",
          "name": "allowed",
          "type": "bool"
        }
      ],
      "name": "MinterChanged",
      "type": "event"
    },
    {
      "anonymous": false,
      "inputs": [
        {
          "indexed": true,
          "internalType": "address",
          "name": "oldOwner",
          "type": "address"
        },
        {
          "indexed": true,
          "internalType": "address",
          "name": "newOwner",
          "type": "address"
        }
      ],
      "name": "OwnershipTransferred",
      "type": "event"
    },
    {
      "anonymous": false,
      "inputs": [
        {
          "indexed": true,
          "internalType": "address",
          "name": "from",
          "type": "address"
        },
        {
          "indexed": true,
          "internalType": "address",
          "name": "to",
          "type": "address"
        },
        {
          "indexed": true,
          "internalType": "uint256",
          "name": "tokenId",
          "type": "uint256"
        }
      ],
      "name": "Transfer",
      "type": "event"
    },
    {
      "inputs": [
        {
          "internalType": "address",
          "name": "",
          "type": "address"
        },
        {
          "internalType": "uint256",
          "name": "",
          "type": "uint256"
        }
      ],
      "name": "approve",
      "outputs": [],
      "stateMutability": "pure",
      "type": "function"
    },
    {
      "inputs": [
        {
          "internalType": "address",
          "name": "account",
          "type": "address"
        }
      ],
      "name": "balanceOf",
      "outputs": [
        {
          "internalType": "uint256",
          "name": "",
          "type": "uint256"
        }
      ],
      "stateMutability": "view",
      "type": "function"
    },
    {
      "inputs": [
        {
          "internalType": "uint256",
          "name": "",
          "type": "uint256"
        }
      ],
      "name": "credentials",
      "outputs": [
        {
          "internalType": "string",
          "name": "certificateNumber",
          "type": "string"
        },
        {
          "internalType": "string",
          "name": "metadataUri",
          "type": "string"
        },
        {
          "internalType": "uint256",
          "name": "issuedAt",
          "type": "uint256"
        },
        {
          "internalType": "bool",
          "name": "revoked",
          "type": "bool"
        }
      ],
      "stateMutability": "view",
      "type": "function"
    },
    {
      "inputs": [
        {
          "internalType": "uint256",
          "name": "tokenId",
          "type": "uint256"
        }
      ],
      "name": "getApproved",
      "outputs": [
        {
          "internalType": "address",
          "name": "",
          "type": "address"
        }
      ],
      "stateMutability": "view",
      "type": "function"
    },
    {
      "inputs": [
        {
          "internalType": "address",
          "name": "",
          "type": "address"
        },
        {
          "internalType": "address",
          "name": "",
          "type": "address"
        }
      ],
      "name": "isApprovedForAll",
      "outputs": [
        {
          "internalType": "bool",
          "name": "",
          "type": "bool"
        }
      ],
      "stateMutability": "pure",
      "type": "function"
    },
    {
      "inputs": [
        {
          "internalType": "address",
          "name": "student",
          "type": "address"
        },
        {
          "internalType": "string",
          "name": "certificateNumber",
          "type": "string"
        },
        {
          "internalType": "string",
          "name": "metadataUri",
          "type": "string"
        }
      ],
      "name": "mintCertificate",
      "outputs": [
        {
          "internalType": "uint256",
          "name": "tokenId",
          "type": "uint256"
        }
      ],
      "stateMutability": "nonpayable",
      "type": "function"
    },
    {
      "inputs": [
        {
          "internalType": "address",
          "name": "",
          "type": "address"
        }
      ],
      "name": "minters",
      "outputs": [
        {
          "internalType": "bool",
          "name": "",
          "type": "bool"
        }
      ],
      "stateMutability": "view",
      "type": "function"
    },
    {
      "inputs": [],
      "name": "name",
      "outputs": [
        {
          "internalType": "string",
          "name": "",
          "type": "string"
        }
      ],
      "stateMutability": "view",
      "type": "function"
    },
    {
      "inputs": [],
      "name": "nextTokenId",
      "outputs": [
        {
          "internalType": "uint256",
          "name": "",
          "type": "uint256"
        }
      ],
      "stateMutability": "view",
      "type": "function"
    },
    {
      "inputs": [],
      "name": "owner",
      "outputs": [
        {
          "internalType": "address",
          "name": "",
          "type": "address"
        }
      ],
      "stateMutability": "view",
      "type": "function"
    },
    {
      "inputs": [
        {
          "internalType": "uint256",
          "name": "tokenId",
          "type": "uint256"
        }
      ],
      "name": "ownerOf",
      "outputs": [
        {
          "internalType": "address",
          "name": "",
          "type": "address"
        }
      ],
      "stateMutability": "view",
      "type": "function"
    },
    {
      "inputs": [
        {
          "internalType": "uint256",
          "name": "tokenId",
          "type": "uint256"
        }
      ],
      "name": "revokeCertificate",
      "outputs": [],
      "stateMutability": "nonpayable",
      "type": "function"
    },
    {
      "inputs": [
        {
          "internalType": "address",
          "name": "",
          "type": "address"
        },
        {
          "internalType": "address",
          "name": "",
          "type": "address"
        },
        {
          "internalType": "uint256",
          "name": "",
          "type": "uint256"
        }
      ],
      "name": "safeTransferFrom",
      "outputs": [],
      "stateMutability": "pure",
      "type": "function"
    },
    {
      "inputs": [
        {
          "internalType": "address",
          "name": "",
          "type": "address"
        },
        {
          "internalType": "address",
          "name": "",
          "type": "address"
        },
        {
          "internalType": "uint256",
          "name": "",
          "type": "uint256"
        },
        {
          "internalType": "bytes",
          "name": "",
          "type": "bytes"
        }
      ],
      "name": "safeTransferFrom",
      "outputs": [],
      "stateMutability": "pure",
      "type": "function"
    },
    {
      "inputs": [
        {
          "internalType": "address",
          "name": "",
          "type": "address"
        },
        {
          "internalType": "bool",
          "name": "",
          "type": "bool"
        }
      ],
      "name": "setApprovalForAll",
      "outputs": [],
      "stateMutability": "pure",
      "type": "function"
    },
    {
      "inputs": [
        {
          "internalType": "address",
          "name": "minter",
          "type": "address"
        },
        {
          "internalType": "bool",
          "name": "allowed",
          "type": "bool"
        }
      ],
      "name": "setMinter",
      "outputs": [],
      "stateMutability": "nonpayable",
      "type": "function"
    },
    {
      "inputs": [
        {
          "internalType": "bytes4",
          "name": "interfaceId",
          "type": "bytes4"
        }
      ],
      "name": "supportsInterface",
      "outputs": [
        {
          "internalType": "bool",
          "name": "",
          "type": "bool"
        }
      ],
      "stateMutability": "pure",
      "type": "function"
    },
    {
      "inputs": [],
      "name": "symbol",
      "outputs": [
        {
          "internalType": "string",
          "name": "",
          "type": "string"
        }
      ],
      "stateMutability": "view",
      "type": "function"
    },
    {
      "inputs": [
        {
          "internalType": "bytes32",
          "name": "",
          "type": "bytes32"
        }
      ],
      "name": "tokenByCertificateHash",
      "outputs": [
        {
          "internalType": "uint256",
          "name": "",
          "type": "uint256"
        }
      ],
      "stateMutability": "view",
      "type": "function"
    },
    {
      "inputs": [
        {
          "internalType": "string",
          "name": "certificateNumber",
          "type": "string"
        }
      ],
      "name": "tokenIdForCertificate",
      "outputs": [
        {
          "internalType": "uint256",
          "name": "",
          "type": "uint256"
        }
      ],
      "stateMutability": "view",
      "type": "function"
    },
    {
      "inputs": [
        {
          "internalType": "uint256",
          "name": "tokenId",
          "type": "uint256"
        }
      ],
      "name": "tokenURI",
      "outputs": [
        {
          "internalType": "string",
          "name": "",
          "type": "string"
        }
      ],
      "stateMutability": "view",
      "type": "function"
    },
    {
      "inputs": [
        {
          "internalType": "address",
          "name": "",
          "type": "address"
        },
        {
          "internalType": "address",
          "name": "",
          "type": "address"
        },
        {
          "internalType": "uint256",
          "name": "",
          "type": "uint256"
        }
      ],
      "name": "transferFrom",
      "outputs": [],
      "stateMutability": "pure",
      "type": "function"
    },
    {
      "inputs": [
        {
          "internalType": "address",
          "name": "newOwner",
          "type": "address"
        }
      ],
      "name": "transferOwnership",
      "outputs": [],
      "stateMutability": "nonpayable",
      "type": "function"
    }
  ],
  "bytecode": "0x608060405260018055348015601357600080fd5b506040516114b83803806114b883398101604081905260309160b4565b6001600160a01b038116607a5760405162461bcd60e51b815260206004820152600e60248201526d13d5d3915497d49154555254915160921b604482015260640160405180910390fd5b600080546001600160a01b039092166001600160a01b031990921682178155908152600260205260409020805460ff1916600117905560e2565b60006020828403121560c557600080fd5b81516001600160a01b038116811460db57600080fd5b9392505050565b6113c7806100f16000396000f3fe608060405234801561001057600080fd5b506004361061014d5760003560e01c806375794a3c116100c3578063c87b56dd1161007c578063c87b56dd146102c8578063cf456ae7146102db578063e0574e3f146102ee578063e985e9c514610311578063f2fde38b14610327578063f46eccc41461033a57600080fd5b806375794a3c146102575780638001ff6d146102605780638da5cb5b1461027357806395d89b4114610286578063a22cb465146102ac578063b88d4fde146102ba57600080fd5b8063095ea7b311610115578063095ea7b3146101fd57806323b872dd1461021057806342842e0e146102105780636352211e1461021e5780636b55243d1461023157806370a082311461024457600080fd5b806301ffc9a714610152578063040704e31461017a57806306f5497e146101a857806306fdde03146101bd578063081812fc146101d2575b600080fd5b610165610160366004610d5b565b61035d565b60405190151581526020015b60405180910390f35b61019a610188366004610d8c565b60066020526000908152604090205481565b604051908152602001610171565b6101bb6101b6366004610d8c565b6103af565b005b6101c56104c4565b6040516101719190610deb565b6101e56101e0366004610d8c565b6104e0565b6040516001600160a01b039091168152602001610171565b6101bb61020b366004610e1a565b61051c565b6101bb61020b366004610e44565b6101e561022c366004610d8c565b610557565b61019a61023f366004610eca565b61058c565b61019a610252366004610f50565b610907565b61019a60015481565b61019a61026e366004610f6b565b61096a565b6000546101e5906001600160a01b031681565b6101c56040518060400160405280600781526020016615109550d1549560ca1b81525081565b6101bb61020b366004610fad565b6101bb61020b366004610fe9565b6101c56102d6366004610d8c565b61099f565b6101bb6102e9366004610fad565b610a77565b6103016102fc366004610d8c565b610b48565b604051610171949392919061103b565b61016561031f366004611079565b600092915050565b6101bb610335366004610f50565b610c84565b610165610348366004610f50565b60026020526000908152604090205460ff1681565b60006301ffc9a760e01b6001600160e01b03198316148061038e57506380ac58cd60e01b6001600160e01b03198316145b806103a95750635b5e139f60e01b6001600160e01b03198316145b92915050565b6000546001600160a01b031633146103e25760405162461bcd60e51b81526004016103d9906110ac565b60405180910390fd5b6000818152600360205260409020546001600160a01b03166104165760405162461bcd60e51b81526004016103d9906110cf565b60008181526005602052604090206003015460ff161561046a5760405162461bcd60e51b815260206004820152600f60248201526e1053149150511657d4915593d2d151608a1b60448201526064016103d9565b6000818152600560205260409081902060038101805460ff19166001179055905182917f65032d3cc955c731f4c2a4178f663dbcc6c08e5163bad5a3149773f3894548d3916104b99190611132565b60405180910390a250565b60405180606001604052806023815260200161136f6023913981565b6000818152600360205260408120546001600160a01b03166105145760405162461bcd60e51b81526004016103d9906110cf565b506000919050565b60405162461bcd60e51b815260206004820152601060248201526f4e4f4e5f5452414e5346455241424c4560801b60448201526064016103d9565b6000818152600360205260408120546001600160a01b0316806103a95760405162461bcd60e51b81526004016103d9906110cf565b600080546001600160a01b03163314806105b557503360009081526002602052604090205460ff165b6105ee5760405162461bcd60e51b815260206004820152600a6024820152692727aa2fa6a4a72a22a960b11b60448201526064016103d9565b6001600160a01b0386166106375760405162461bcd60e51b815260206004820152601060248201526f14d5155111539517d49154555254915160821b60448201526064016103d9565b8361067b5760405162461bcd60e51b815260206004820152601460248201527310d1549512519250d0551157d49154555254915160621b60448201526064016103d9565b816106bc5760405162461bcd60e51b8152602060048201526011602482015270135155105110551057d491545552549151607a1b60448201526064016103d9565b600085856040516106ce9291906111be565b6040518091039020905060066000828152602001908152602001600020546000146107305760405162461bcd60e51b815260206004820152601260248201527143455254494649434154455f45584953545360701b60448201526064016103d9565b60018054925080600061074382866111ce565b9091555050600082815260036020908152604080832080546001600160a01b0319166001600160a01b038c1690811790915583526004909152812080546001929061078f9084906111ce565b90915550506040805160a06020601f890181900402820181019092526080810187815290918291908990899081908501838280828437600092019190915250505090825250604080516020601f88018190048102820181019092528681529181019190879087908190840183828082843760009201829052509385525050426020808501919091526040938401839052868352600590525020815181906108369082611254565b506020820151600182019061084b9082611254565b5060408281015160028301556060909201516003909101805460ff191691151591909117905560008281526006602052818120849055905183916001600160a01b038a16917fddf252ad1be2c89b69c2b068fc378daa952ba7f163c4a11628f55a4df523b3ef908290a481876001600160a01b03167fdf3ae6468a98ff1ead3728ef0f0ebb699d510dd92dfb1fc5901a84fd9aa7f26e888888886040516108f5949392919061133c565b60405180910390a35095945050505050565b60006001600160a01b03821661094e5760405162461bcd60e51b815260206004820152600c60248201526b5a45524f5f4144445245535360a01b60448201526064016103d9565b506001600160a01b031660009081526004602052604090205490565b60006006600084846040516109809291906111be565b6040518091039020815260200190815260200160002054905092915050565b6000818152600360205260409020546060906001600160a01b03166109d65760405162461bcd60e51b81526004016103d9906110cf565b600082815260056020526040902060010180546109f2906110f8565b80601f0160208091040260200160405190810160405280929190818152602001828054610a1e906110f8565b8015610a6b5780601f10610a4057610100808354040283529160200191610a6b565b820191906000526020600020905b815481529060010190602001808311610a4e57829003601f168201915b50505050509050919050565b6000546001600160a01b03163314610aa15760405162461bcd60e51b81526004016103d9906110ac565b6001600160a01b038216610ae95760405162461bcd60e51b815260206004820152600f60248201526e13525395115497d491545552549151608a1b60448201526064016103d9565b6001600160a01b038216600081815260026020908152604091829020805460ff191685151590811790915591519182527f04bca3656717d14c20f88f2a0122832cb0d2807bfc66ed9e932a2202cc59f495910160405180910390a25050565b600560205260009081526040902080548190610b63906110f8565b80601f0160208091040260200160405190810160405280929190818152602001828054610b8f906110f8565b8015610bdc5780601f10610bb157610100808354040283529160200191610bdc565b820191906000526020600020905b815481529060010190602001808311610bbf57829003601f168201915b505050505090806001018054610bf1906110f8565b80601f0160208091040260200160405190810160405280929190818152602001828054610c1d906110f8565b8015610c6a5780601f10610c3f57610100808354040283529160200191610c6a565b820191906000526020600020905b815481529060010190602001808311610c4d57829003601f168201915b50505050600283015460039093015491929160ff16905084565b6000546001600160a01b03163314610cae5760405162461bcd60e51b81526004016103d9906110ac565b6001600160a01b038116610cf55760405162461bcd60e51b815260206004820152600e60248201526d13d5d3915497d49154555254915160921b60448201526064016103d9565b600080546001600160a01b038381166001600160a01b031983168117845580845260026020526040808520805460ff1916600117905551919092169283917f8be0079c531659141344cd1fd0a4f28419497f9722a3daafe3b4186f6b6457e09190a35050565b600060208284031215610d6d57600080fd5b81356001600160e01b031981168114610d8557600080fd5b9392505050565b600060208284031215610d9e57600080fd5b5035919050565b6000815180845260005b81811015610dcb57602081850181015186830182015201610daf565b506000602082860101526020601f19601f83011685010191505092915050565b602081526000610d856020830184610da5565b80356001600160a01b0381168114610e1557600080fd5b919050565b60008060408385031215610e2d57600080fd5b610e3683610dfe565b946020939093013593505050565b600080600060608486031215610e5957600080fd5b610e6284610dfe565b9250610e7060208501610dfe565b929592945050506040919091013590565b60008083601f840112610e9357600080fd5b50813567ffffffffffffffff811115610eab57600080fd5b602083019150836020828501011115610ec357600080fd5b9250929050565b600080600080600060608688031215610ee257600080fd5b610eeb86610dfe565b9450602086013567ffffffffffffffff811115610f0757600080fd5b610f1388828901610e81565b909550935050604086013567ffffffffffffffff811115610f3357600080fd5b610f3f88828901610e81565b969995985093965092949392505050565b600060208284031215610f6257600080fd5b610d8582610dfe565b60008060208385031215610f7e57600080fd5b823567ffffffffffffffff811115610f9557600080fd5b610fa185828601610e81565b90969095509350505050565b60008060408385031215610fc057600080fd5b610fc983610dfe565b915060208301358015158114610fde57600080fd5b809150509250929050565b60008060008060006080868803121561100157600080fd5b61100a86610dfe565b945061101860208701610dfe565b935060408601359250606086013567ffffffffffffffff811115610f3357600080fd5b60808152600061104e6080830187610da5565b82810360208401526110608187610da5565b6040840195909552505090151560609091015292915050565b6000806040838503121561108c57600080fd5b61109583610dfe565b91506110a360208401610dfe565b90509250929050565b6020808252600990820152682727aa2fa7aba722a960b91b604082015260600190565b6020808252600f908201526e1513d2d15397d393d517d193d55391608a1b604082015260600190565b600181811c9082168061110c57607f821691505b60208210810361112c57634e487b7160e01b600052602260045260246000fd5b50919050565b602081526000808354611144816110f8565b8060208601526001821660008114611163576001811461117f576111b3565b60ff1983166040870152604082151560051b87010193506111b3565b86600052602060002060005b838110156111aa5781548882016040015260019091019060200161118b565b87016040019450505b509195945050505050565b8183823760009101908152919050565b808201808211156103a957634e487b7160e01b600052601160045260246000fd5b634e487b7160e01b600052604160045260246000fd5b601f82111561124f57806000526020600020601f840160051c8101602085101561122c5750805b601f840160051c820191505b8181101561124c5760008155600101611238565b50505b505050565b815167ffffffffffffffff81111561126e5761126e6111ef565b6112828161127c84546110f8565b84611205565b6020601f8211600181146112b6576000831561129e5750848201515b600019600385901b1c1916600184901b17845561124c565b600084815260208120601f198516915b828110156112e657878501518255602094850194600190920191016112c6565b50848210156113045786840151600019600387901b60f8161c191681555b50505050600190811b01905550565b81835281816020850137506000828201602090810191909152601f909101601f19169091010190565b604081526000611350604083018688611313565b8281036020840152611363818587611313565b97965050505050505056fe547269626520426c6f636b20556e697665727369747920436572746966696361746573a2646970667358221220beb5bfbdeda3dd38e0351feb5aac3acee7dd4f86e7e01aebf8d31bb2e86f5dc964736f6c634300081c0033",
  "linkReferences": {},
  "deployedLinkReferences": {}
}